:020000040800F2
:1000000038070020A1010008CB2000088F1F00083E
:10001000C92000089B1100080B2200080000000006
:10002000000000000000000000000000CF200008D9
:100030001313000800000000CD200008D1200008A4
:10004000BB010008BB010008BB010008BB010008A0
:10005000BB010008BB010008BB010008BB01000890
:10006000BB010008BB010008BB010008BB01000880
:10007000BB010008BB010008BB010008BB01000870
:10008000BB010008BB010008BB010008BB01000860
:10009000BB010008BB010008BB010008BB01000850
:1000A000BB010008BB010008BB010008BB01000840
:1000B000BB010008BB010008BB010008BB01000830
:1000C000BB010008BB010008BB010008BB01000820
:1000D000BB010008BB010008BB010008BB01000810
:1000E000BB010008BB010008BB01000800F002F8DA
:1000F00000F047F80AA090E8000C82448344AAF17B
:100100000107DA4501D100F03CF8AFF2090EBAE878
:100110000F0013F0010F18BFFB1A43F0010318473B
:100120005426000074260000103A24BF78C878C115
:10013000FAD8520724BF30C830C144BF04680C60ED
:10014000704700000023002400250026103A28BF35
:1001500078C1FBD8520728BF30C148BF0B60704739
:10016000662902F0AE82002070471FB500F0D8FA71
:1001700004000020002102F003FAE0601FBD10B56A
:1001800010BD00F0CDFB1146FFF7EFFF02F0A4F920
:1001900000F0EBFB03B4FFF7F2FF03BC00F02EFC12
:1001A0000948804709480047FEE7FEE7FEE7FEE70B
:1001B000FEE7FEE7FEE7FEE7FEE7FEE70448054947
:1001C000054A064B7047000033210008ED00000887
:1001D00038010020380700203803002038030020B1
:1001E0000FB41CB5074B06AA7B44694600900598DE
:1001F00000F07DFA0020694600F08CFA1CBC5DF826
:1002000014FB0000290500002DE9F0410E460446CC
:10021000002020622046E168884730B3252805D0B9
:10022000D4E901219047206A401CF2E7E1682046AA
:1002300000278847050018D0A5F14100192802D8E9
:1002400020354FF400673246294620462760FFF7E5
:1002500087FF40B1012804D0F61D26F007060836B6
:10026000D8E7361DD6E72846DAE7206ABDE8F081F0
:100270004FF0000200B5134694469646203922BF3F
:10028000A0E80C50A0E80C50B1F12001BFF4F7AF8A
:10029000090728BFA0E80C5048BF0CC05DF804EB6C
:1002A000890028BF40F8042B08BF704748BF20F8DA
:1002B000022B11F0804F18BF00F8012B70477047D8
:1002C0007047704770472DE9FF4F0C461E464FF0B0
:1002D000FF378BB0D2E90001DDF860800A908A46D2
:1002E000C1F30A5505B93D46002108464FF000000C
:1002F000BAF1000F00F4400005DA00EB80004FF483
:10030000400101EA50004FEA9059B9F1010F00DDB8
:10031000B9460A9850EA4A000ED044F61050A5F2A9
:10032000FF3545432F14B8F1000F1ED07542291E2A
:100330001EDDC9F100021CE0B8F1010F4FF0000012
:1003400001D0302103E0F24305E02154401CB042CB
:10035000FBDB30460022002121540B99C1F80880B4
:10036000C1E900200FB0BDE8F08FBD1B6D1CDEE7BA
:100370004A4600DA694206A800F05CFA06AB93E848
:10038000070003AB83E8070050460A9900F03DFBE5
:100390008DE80700A0F500501F3800900398002D4D
:1003A0000ADD42F21F014A460844002303A90390D4
:1003B000684600F0A6FD09E0A0F500504A461F3847
:1003C000002303A90390684600F0B0FD8DE8070004
:1003D0000004000C03D04FF0FF30410800E010464D
:1003E000B8F1000F03D00022009215461EE0751EE2
:1003F00005D400F099F9303262556D1EF9D5B34637
:100400000122084302D000227F1C04E0207830281B
:1004100001D100227F1E002A099784D01DE0112DF2
:1004200007DA00F081F9303262556D1C50EA0102A2
:10043000F5D1084302D00098C8B10EE00021681E33
:1004400005E0235C625C63542254401E491C8142D7
:10045000F7DBAB46A81B401E0990002004F80B00F8
:100460000B98099AC0F80880C0E9002B7AE711269A
:100470004FF0000857E72DE9F04F88460446D21D9B
:1004800022F0070191B0D1E90001CDE90A0101F0A4
:10049000BDFE02460B98C00F01D02D2007E020685A
:1004A000810701D52B2002E0202101EAC000032AA8
:1004B000099001D0072A05DB03464146204600F09B
:1004C00079F90BE12078800601D5E06900E006208B
:1004D000B8F1650F814606D0B8F1660F18D0B8F1B3
:1004E000670F70D131E00020B9F1110F009001DBEE
:1004F000112301E009F101030AAA01A90CA8FFF7E1
:10050000E2FEDDE90C70002609F10105834647E0B3
:1005100001204B4600904FF000470AAA01A90CA801
:10052000FFF7D1FEDDE90DB00C995D46002610B94C
:1005300009F101000D18B9EB050003D4C0F1FF3635
:1005400009F10105A5EB09002BE0B9F1010F01DA72
:100550004FF001090020B9F1110F0090484601DD6C
:10056000112300E003460AAA01A90CA8FFF7ABFE7D
:10057000DDE90C704D4600268346207800070AD43A
:10058000AB4500DA5D4601A8012D04DD411911F8E3
:10059000011C302907D04F4502DA17F1040F04DAA5
:1005A000012082460FE06D1EEEE7002F02DCED1BFE
:1005B0003E4403E0781CA84200DD7D1CB81B00F11E
:1005C000010A4FF000472078000703D4AA4501DB59
:1005D0004FF0FF3A0021B7F1004F0DF143088DF8BD
:1005E000431024D002202B23002F01DA7F422D2339
:1005F0000A21021EA0F1010000DC5FB197FBF1FCB3
:1006000097FBF1F201FB1C7C17460CF1300C08F84B
:1006100001CDEEE7A8F1010003702188090501D59D
:10062000452100E06521A0F1010800F8011C0998AE
:100630000FA9A1EB0807FF1D00B10120411901EB33
:10064000EA70A1693844081A401EA0612078C006EB
:1006500002D42046AFF30080099828B1D4E90121E3
:100660009047206A401C20622078C00622D5204690
:10067000AFF300801EE0002E04DBB34502DD01A8CD
:10068000805D00E03020D4E901219047206A401CC1
:100690002062761CAAF101005FEA000A0AD100F08C
:1006A0003FF8C0680168405CD4E901219047206AA6
:1006B000401C2062281EA5F10105DCDC07E0D4E91E
:1006C000012118F8010B9047206A401C2062381E57
:1006D000A7F10107F3DC2046AFF30080032011B03F
:1006E00041E6000001694A1C02610878704700B5C4
:1006F0008FB0CDE901310021059105497944CDE95B
:10070000031011466846FFF77FFD0FB000BD0000E3
:10071000E5FFFFFF0A6802F8010B0A60704700005E
:1007200000487047F800002030B5B0F10A024FEAE7
:10073000900E71F100034EEA817EB0EB0E0061EB8A
:1007400091014FEA101E4EEA017E10EB0E0041EBC4
:1007500011114FEA102E4EEA016E10EB0E0041EB24
:1007600011214FEA104E4EEA014E10EB0E0041EB04
:100770001141401841F100014FEAD00040EA4170B8
:100780004FEAD10110EB80054FEA810444EA9074EE
:1007900044EB01046D1944EB0404521BA3414FF0D8
:1007A000000348BF0A3200D530BD401C41F10001B2
:1007B00030BD00002DE9F0411F46044603260168C4
:1007C000072A01F4006004DB08B116A505E016A5B0
:1007D00003E008B115A500E015A521F01000206088
:1007E000A069C01EA0610FB1401EA0612046AFF3FA
:1007F00000804FB1D4E9012138469047206A401C5F
:100800002062C01C206206E0206AFAE7D4E90121D8
:1008100015F8010B9047761EF8D22046AFF3008002
:10082000BDE8F0814E414E006E616E00494E4600BB
:10083000696E66002DE9F047814616468AB0354854
:1008400078440DC88DE80D0032487844801C03AC14
:100850000DC884E80D0041F69B300844372190FB19
:10086000F1F290FBF1F5A5F1800501FB12041B3CB0
:1008700002D56442012000E00020DFF898A0804605
:100880000027FA44AAF1BE0A0EE0E0070AD0324679
:10089000684607EB470101230AEB810100F046FBA4
:1008A0008DE8070064107F1C002CEED1194F7F44A7
:1008B000AE3F19E0E80715D007EB04100DF1180A58
:1008C00090E80E008AE80E00C068F04201D1981945
:1008D00008903246012306A903A800F027FB03ABCA
:1008E00083E807006D10641C002DE3D14FF0010375
:1008F00032466946B8F1000F03A802D000F001FBB0
:1009000001E000F013FBC9E90001C9F808200AB0B2
:10091000BDE8F087181F000000487047D80000208D
:100920007546FFF7F9FFAE4605006946534620F0CD
:100930000700854618B020B5FFF740FCBDE8204011
:100940004FF000064FF000074FF000084FF0000B8B
:1009500021F00701AC46ACE8C009ACE8C009ACE83E
:10096000C009ACE8C0098D46704710B50446AFF326
:1009700000802046BDE81040FFF70CBC4FF0013C62
:1009800050F8042B51F8043B9A4221D1A2EB0C03FE
:10099000934313EACC1317D150F8042B51F8043BBE
:1009A0009A4215D1A2EB0C03934313EACC130BD15B
:1009B00050F8042B51F8043B9A4209D1A2EB0C03E6
:1009C000934313EACC13DBD04FF00000704700BF15
:1009D000D01A01BAB1FA81F101F0180122FA01F03E
:1009E000CB40C1F12001DBB2C0B2C01A2CFA01F336
:1009F000D11A914311EAC311E6D170470149182079
:100A0000ABBEFEE72600020070475FEA400C08BF5D
:100A100091F0000F4FEA8C234FEAC12243EA515173
:100A20004FEA1C5018BF00F5F0404FEA300018BFE5
:100A300041F000415FEA6C5C00F02980BCF1FF3FAF
:100A400008BF40F080407047130C06BF12044FF0FF
:100A5000100C4FF0000C130E04BF12020CF1080C26
:100A6000130F04BF12010CF1040C930F04BF92008A
:100A70000CF1020CD30F04BF52000CF1010C114613
:100A80004FF00002A0F11F00A0EB0C00704711F026
:100A9000004F08BF704731F000413FF4D5AF0B0C59
:100AA00006BF09044FF0100C4FF0000C0B0E04BFF2
:100AB00009020CF1080C0B0F04BF09010CF1040C26
:100AC0008B0F04BF89000CF1020CCB0F04BF49004F
:100AD0000CF1010CCCF12003A0EB0C0022FA03F383
:100AE00002FA0CF241EA030100F10100704720F024
:100AF0007F4C80EA030023F07F47ACEB070303F54C
:100B00007C5300F0004003F1FF032DE980494FEAD8
:100B1000154B09B44FEA144325EA0B4E24EA034867
:100B20000FF2042606EB132749083E785FEA3202EB
:100B300003FB0667C7F5000707FB06F64FEA5437C5
:100B40004FEAD64606F1020607FB066CCCF1005CC4
:100B50004FEA1C472CEA074C07FB06F40CFB06F592
:100B600004EB15464FEA961634BF00204FF00040C4
:100B70004FEAD13706FB07FC4FEA1C4C0CFB0BF786
:100B8000D21B03FB0CF761EB07010CFB0EF7B0EB7C
:100B9000074072EB17420CFB08F734BFA2EB074289
:100BA000B2EB074261EB17414FEA0C444FEA910761
:100BB00006FB07FC4FEA1C4C0CFB0BF7B0EBC740E5
:100BC00072EB573203FB0CF734BFA2EBC742B2EB18
:100BD000C74261EB57310CFB0EF7B0EBC70072EB6D
:100BE00057720CFB08F734BFA2EBC702B2EBC70287
:100BF00061EB5771039F4FEA816141EA921104EB67
:100C0000CC044FEAD1374FEA826206FB07FC42EA86
:100C100090124FEA80604FEA1C4C0CFB0BF7D21B82
:100C200003FB0CF761EB07010CFB0EF7B0EB074081
:100C300072EB17420CFB08F734BFA2EB0742B2EB92
:100C4000074261EB17414FEA8C554FEA910704EBDD
:100C50009C2406FB07FC4FEA1C4C0CFB0BF7B0EB8B
:100C6000C74072EB573203FB0CF734BFA2EBC7420D
:100C7000B2EBC74261EB57310CFB0EF7B0EBC7008C
:100C800072EB57720CFB08F734BFA2EBC702B2EB52
:100C9000C70261EB577115EB4C254FEA816141EAC0
:100CA00092114FEA82624FEAD13742EA901206FB74
:100CB00007FC44F100044FEA80604FEA1C4C0CFB37
:100CC0000BF7D21B03FB0CF761EB07010CFB0EF7D4
:100CD000B0EB074072EB17420CFB08F734BFA2EBF6
:100CE0000742B2EB074261EB174115EB1C154FEAC7
:100CF000813141EA92414FEA823242EA90424FEA20
:100D000080304FEA0C7644F1000448EA03434EEA8F
:100D10000B484FF0000EB2EB080C71EB030724BF39
:100D2000624639464EEB0E0E4FF0000B0018524152
:100D300049414BEB0B0BB2EB080C71EB03077BF15A
:100D4000000B24BF624639464EEB0E0E4FF0000BEF
:100D50000018524149414BEB0B0BB2EB080C71EB05
:100D600003077BF1000B24BF624639464EEB0E0EA3
:100D700051EA020718BF46F0010616EB0E7655F150
:100D8000000254F1000103D5BDE88901BDE80088E7
:100D9000BDE88901BDE80048B619524141EB0101A7
:100DA000A3F10103704780807F7E7D7C7B7A797818
:100DB000777676757473727171706F6E6E6D6C6C20
:100DC0006B6A6A69686867666665646463636261C2
:100DD0006160605F5F5E5E5D5D5C5C5B5B5A5A5943
:100DE00059585857575656555555545453535252AF
:100DF0005251515050504F4F4F4E4E4D4D4D4C4C07
:100E00004C4B4B4B4A4A4A4949494848484747474F
:100E1000474646464545454444444443434343428C
:100E2000424242414141002B9C4630D477002BD0B6
:100E30001CB54FEA370703B44FF010004FF0100114
:100E4000BAF1000F06D0BCF1000FDCBF40F0080083
:100E500040F008014FF000000FBCBDE810400BF15E
:100E6000010BBBF1010F08BF5FEA170722BF12F1A8
:100E7000010211F101014FF0004143F1000300F0C4
:100E8000004043EA00007047F9D35708D0E746EA2C
:100E9000064613F1400F4FEA16461FDD13F1200FEF
:100EA000DFBF16430A46002120335B42BED0C3F1A8
:100EB000200746EA064602FA07F74FEA164646EAD0
:100EC0000706C3F1200722FA03F201FA07F721FA15
:100ED00003F14FF0000342EA0702A7E746EA0206E1
:100EE00046EA06464FEA164646EA0106BCBF46EA0F
:100EF0000646360C4FF000034FF000024FF00001A1
:100F000094E72DE9804C9A46934670B491E83800F6
:100F100007C831EA400C48BF34EA430C03D5FFF759
:100F2000E6FDFFF780FFF0BCBDE8008C2DE9804CAA
:100F30009A46934670B491E8380007C810F0804F85
:100F400008BF13F0804F03D100F005F8FFF76BFFE7
:100F5000F0BCBDE8008C20F07F4780EA030023F05E
:100F60007F4C07EB0C03A3F57C5300F00040A3F18A
:100F7000FE0392F0000F00F0B38095F0000F00F038
:100F800077802DE901494FEA11404FEA144621EAE2
:100F9000004800FB06FC24EA064708FB06F607FBB0
:100FA00008F800FB07F718EB06484CEB164C4FEA25
:100FB000124B18EB07484FEA15464CEB174022EA54
:100FC0000B4E0BFB06FC25EA06470EFB06F607FB5D
:100FD0000EFE0BFB07F71EEB064E4CEB164C4FF0CC
:100FE00000061EEB074E4CEB174B18EB0B0840F1BD
:100FF000000018EB0E0B58EB000840F100008F1AB0
:101000004FF000013CBFC943661B14BFB5EB040C95
:1010100000213CBFC943F61B4FEA17444EEA8E0E2F
:1010200027EA04454FEA1C4704FB07622CEA074CF9
:1010300005FB07F70CFB05F604FB0CFC16EB07465B
:1010400042EB174216EB0C4642EB1C421BEB06062A
:1010500058EB0202414146EA9E0601D5BDE80189EE
:10106000B619524141EB0101A3F10103BDE8018929
:101070004FEA14454FEA114724EA054621EA074C96
:1010800005FB07F406FB07F70CFB06F105FB0CFC60
:1010900011EB074144EB17444FEA124711EB0C41A7
:1010A00044EB1C4422EA074C05FB07F206FB07F75A
:1010B0000CFB06F605FB0CFC16EB074642EB174251
:1010C00016EB0C4642EB1C456A1854F1000148BF70
:1010D0007047B619524141EB0101A3F1010370477A
:1010E00095F0000F37D04FEA11424FEA144721EA3A
:1010F000024624EA074C02FB07F106FB07F70CFB4C
:1011000006F402FB0CFC14EB074441EB17414FEAD9
:10111000154714EB0C4441EB1C4125EA074C02FB3C
:1011200007F506FB07F70CFB06F602FB0CFC16EBBB
:10113000074645EB174516EB0C4645EB1C421219CA
:1011400051F1000148BF7047B619524141EB01010E
:10115000A3F1010370474FEA14454FEA114724EA0F
:10116000054621EA074C05FB07F106FB07F70CFBD8
:1011700006F24FF0000605FB0CFC12EB074241EBB8
:10118000174112EB0C4251EB1C4148BF70479218BB
:1011900041EB0101A3F101037047FEE700F064BEDB
:1011A000036800225A620068426A8A42FCD3704790
:1011B0004068FFF7F5BF30B40129029C02D0022934
:1011C00003D005E044F2506101E042F6E061418065
:1011D000C3600481426030BC1046FFF7DFBF2DE9D9
:1011E000F0410746002500F050F80024012638465B
:1011F00000F021F80028FAD028213846FFF7D8FF60
:10120000384600F018F880B1C4F1070106FA01F081
:101210002843C5B2384600F00EF80028FAD1641C05
:10122000082CE4DB2846BDE8F081C4F1070006FA8B
:1012300000F08543EEE70189C06800F08BB92DE925
:10124000F041044600202070204600F02BF820706A
:101250002046FFF7C4FF07462046FFF7C0FF2046A1
:10126000FFF7BDFF06462046FFF7B9FF2046FFF710
:10127000B6FF0546304601F0CBF92061384601F053
:10128000C7F960612846BDE8F0811FB500210091D3
:1012900001910291039101890091C068694600F0B3
:1012A00069F81FBD7FB5002504460095019502959C
:1012B00003950089009001200190022003902E46A2
:1012C0006946E06800F056F821893246E06800F08F
:1012D00046F961882046FFF76BFF2046FFF7D5FFF0
:1012E00032212046FFF764FF2046FFF7A4FF40B9F4
:1012F00050212046FFF75CFF2046FFF79CFF00B11E
:1013000001252046FFF797FF0028FAD104B02846B0
:1013100070BD70470FB410B502A8089CFFF78FFF8F
:10132000069801F049F902460B4606A12046FEF751
:1013300057FF22460121022001F0C5F810BC5DF8DC
:1013400014FB000054454D503A2025660D0A00005C
:1013500070B5044600F008F90546601C02D0044848
:101360000078044400F000F9401BA042FAD370BD9D
:10137000000000202DE9F84FDFF8B891002409F1B2
:10138000040A0AF1040B23460F270BF1040EC9E0EF
:101390000125A5402A40AA427DD1674ED1F804C05C
:1013A000ACEB0608B44532D014DCBCF1030F3AD0E4
:1013B00009DCBCF1000F2AD0BCF1010F1CD0BCF13C
:1013C000020F31D11DE0BCF1110F17D0BCF1120F8B
:1013D0002AD119E0B8F5881F19D006DCB8F5803F8E
:1013E00015D0B8F5801F1FD111E0B8F5001F0ED041
:1013F000B8F5041F18D10AE0CB6815E0CB681B1DB7
:1014000012E0CB6808330FE0CB680C330CE08B683C
:101410002BB1012B4FF0080303D0456104E00423F6
:1014200002E0056100E00023FF2A01D8064601E042
:1014300000F104064FEA840501D9A5F12005D6F88C
:10144000008007FA05FC28EA0C0803FA05F548EACB
:101450000508C6F800804D68ED0062D5374DAE69CD
:1014600046F00106AE61AD6924F0030605F0010502
:101470000095334D06EB050CDCF80850A607360F37
:1014800007FA06F825EA0805DFF8B880404503D1D9
:101490004FF0000817E044E0DFF8AC80404502D18F
:1014A0004FF001080FE0DFF8A480404502D14FF073
:1014B000020808E0DFF89880404502D14FF00308A9
:1014C00001E04FF0040808FA06F848EA0508CCF8ED
:1014D00008804D68D9F80060ED034D4601D51643EC
:1014E00000E096432E604D68DAF80060AD03554683
:1014F00001D5164300E096432E604D68DBF800608E
:10150000ED025D4601D5164300E096432E604D681E
:10151000DEF80060AD02754601D5164300E0964343
:101520002E60641C0D682A46E5407FF431AFBDE8AB
:10153000F88F00000004014000001110001002406C
:101540000000014000080140000C01400010014073
:10155000001401408068084000D0012070470AB1A3
:10156000016170470904FBE701488068704700008B
:101570000000002070B5040025D094F83D0000253F
:1015800020B984F83C50204600F0B8F8242084F8B4
:101590003D002068016821F00101016020680168B8
:1015A00041F4004101602068016821F400410160BC
:1015B00000F0FCF94D4A6168914201D84C4900E0C5
:1015C0004C49884201D2012070BD4B492368B0FBD1
:1015D000F1F15E6826F03F060E435E606368934259
:1015E00006D94FF4967359434FF47A73B1FBF3F174
:1015F0002368491C1E6A26F03F0631431962616860
:10160000914210D84900401EB0FBF1F2521CC2F3C7
:101610000B02042A01D2042022E0B0FBF1F0401CAE
:10162000C0F30B001CE0A268F2B301EBC10303EBB3
:101630000116431EB3FBF6F35B1C43F480431B050A
:1016400049D092B301EBC10202EB0111401EB0FB85
:10165000F1F0401CC0F30B0040F4804040F4004027
:101660002168CA694CF6FF739A431043C861D4E9F4
:10167000071001432068026822F0C0021143016094
:10168000D4E9030101432068826848F2FF339A439A
:1016900011438160D4E9050108432168CA6822F03A
:1016A000FF021043C86001E00EE016E02068016808
:1016B00041F0010101602564202084F83D0025638C
:1016C00084F83E50002070BD01EB4106431EB3FB81
:1016D000F6F35B1CB3E70120C2E701EB4101401EBA
:1016E000B0FBF1F0401CC0F30B00B7E7A08601008F
:1016F00080841E0000093D0040420F0010B586B0F6
:1017000000210091019102910391006813498842E0
:1017100022D1134CA06940F00800A061A06969467D
:1017200000F0080004904FF44070009012200190E7
:10173000032003900B48FFF71DFE0B48416841F062
:10174000E06141F002014160E06940F40010E061B5
:10175000E06900F40010049006B010BD0054004091
:1017600000100240000C0140000001400248816866
:10177000027811448160704700000020074810B5CE
:10178000016841F010010160032000F067F80F20AC
:1017900000F006F800F024F8002010BD0020024000
:1017A00070B50D4D04464FF47A712878B1FBF0F016
:1017B0000A490968B1FBF0F000F0CEFA48B9102CE4
:1017C00007D200222146501E00F028F800206C604D
:1017D00070BD012070BD0000000000200C00002042
:1017E0000C4808B5816941F001018161816901F00E
:1017F00001010091C16941F08051C161C06900F0EF
:10180000805000900448416821F0E06141F000718F
:10181000416008BD0010024000000140F0B40E4BD2
:101820001B680C46C3F30223C3F10705042D00D93E
:101830000425191D072901D2002300E0DB1E012623
:1018400006FA05F1491E214099409E40761E164039
:101850003143F0BC00F0EEBC0CED00E0064900F0B6
:10186000070208684FF6FF03184040EA0220034AC7
:1018700010430860704700000CED00E00000FA051E
:101880002DE9F0470F46050061D0434E306800F067
:101890000700B84209D2306820F0070038433060B2
:1018A000306800F00700B84251D128683B4C8107EE
:1018B00012D5400703D5606840F4E0606060287886
:1018C000000703D5606840F4605060606068A968F4
:1018D00020F0F000084360602878C00728D06868CE
:1018E000012810D02168022810D0890700292EDA9B
:1018F000616821F0030101436160FFF735FE804616
:1019000041F288390DE021688903EFE78901EDE7AD
:10191000FFF72AFEA0EB0801494502D90320BDE8E4
:10192000F0876068696800F00C00B0EB810FEFD1C0
:10193000306800F00700B8420BD9306820F007008B
:1019400038433060306800F00700B84201D0012011
:10195000E5E72878400705D56068E96820F4E0608D
:10196000084360602878000706D56068296920F47C
:10197000605040EAC100606000F028F86168084AE1
:10198000C1F30311515CC84006490860064800686D
:10199000FFF706FF0020C2E70020024000100240CF
:1019A000C62600080C000020040000200448054959
:1019B00000684968044AC1F30221515CC84070477D
:1019C0000C00002000100240D626000812A185B0AD
:1019D0000FC98DE80F0014A0144A006804905168E4
:1019E000134801F00C03042B10D0082B0ED1C1F3C7
:1019F0008343C9031DF803000AD5516804AAC1F343
:101A00004041515C0A4A5043B0FBF1F005B07047C9
:101A100008494843FAE700000203040506070809DD
:101A20000A0B0C0D0E0F10100102000000100240F6
:101A300000127A0000093D002DE9F84F040070D033
:101A40002078C04DC00749D06868C0F381000128E4
:101A500007D06868C0F38100022809D16868C00314
:101A600006D52868800339D560680028E7D035E0BE
:101A70006068B0F5803F0BD010B1B0F5A02F11D049
:101A8000286820F480302860286820F4802002E054
:101A9000286840F480302860606890B1FFF764FDEA
:101AA00006460AE0286840F480202860F0E700BF7E
:101AB000FFF75AFD801B642873D828688003F7D588
:101AC0000CE0FFF751FD064605E000BFFFF74CFDB7
:101AD000801B6428F0D828688003F7D420789A4EB9
:101AE00080074FF001094FF0000839D5686810F001
:101AF0000C0F07D06868C0F38100022809D168681C
:101B0000C00306D42868800714D52069012808D1AD
:101B100010E02069B0B1C6F80090FFF725FD074638
:101B200005E00AE1FFF720FDC01B0228C4D82868A1
:101B30008007F7D52868616920F0F80040EAC10005
:101B400028600DE0C6F80080FFF70EFD074604E0B0
:101B5000FFF70AFDC01B022823D828688007F7D4A6
:101B6000207800072CD57948A169D9B1C0F8009038
:101B7000FFF7FAFC074604E0FFF7F6FCC01B02285B
:101B80000FD8686A8007F7D571484FF4FA5100689A
:101B9000B0FBF1F0009000BF0098411E0091FAD216
:101BA0000EE080E0C0F80080FFF7DEFC074604E0AE
:101BB000FFF7DAFCC01B022875D8686A8007F7D4E3
:101BC0002078400760D5E8690027C00008D4E8699C
:101BD00040F08050E861E869012700F080500090F3
:101BE0005C480168C90513D40168834641F48071DB
:101BF0000160FFF7B9FC824606E000BFFFF7B4FCC6
:101C0000A0EB0A0064284ED8DBF80000C005F5D52B
:101C1000E06801280AD008B1052813D0286A20F00E
:101C200001002862286A20F0040002E0286A40F0DF
:101C300001002862E06841F2883B98B1FFF794FC0C
:101C400082460BE0286A40F004002862EEE700BFFD
:101C5000FFF78AFCA0EB0A0159455AD8286A800789
:101C6000F6D50CE0FFF780FC824605E0FFF77CFC30
:101C7000A0EB0A0159454CD8286A8007F6D41FB159
:101C8000E86920F08050E861E06988B36968C1F3D1
:101C90008101022944D00228C6F8608004D0FFF7F1
:101CA00063FC044638E034E0FFF75EFC074604E0DE
:101CB000FFF75AFCC01B02282BD828688001F7D4F4
:101CC000206AB0F5803F05D16868A16820F4003033
:101CD00008436860D4E908010843696821F4741175
:101CE00008436860C6F86090FFF73EFC044606E0D3
:101CF00025E000BFFFF738FC001B022809D8286840
:101D00008001F7D51BE000BFFFF72EFC001B022867
:101D100002D90320BDE8F88F28688001F4D40EE0D2
:101D20000128F7D06868226A00F48031914204D11A
:101D3000616A00F47010884201D00120EAE70020B7
:101D4000E8E70000001002400000424280044242E6
:101D50000C0000200070004010B5401EB0F1807FE4
:101D600001D3012010BD4FF0E02460610F21601706
:101D700000F060FA0020A06107202061002010BD63
:101D800070B590F83C20012A26D0012480F83C4010
:101D9000022280F83D2003685A689D6822F0700690
:101DA0000A6832435A600D4B02689A4208D0B2F179
:101DB000804F05D00A4B9A4202D00A4B9A4204D176
:101DC000496825F080031943916080F83D40002167
:101DD00080F83C10084670BD022070BD002C014008
:101DE000000400400008004010B5040003D094F83F
:101DF0003D0010B107E0012010BD002084F83C0038
:101E0000204600F01FF8022084F83D00211D2068C4
:101E100000F090F9012084F8460084F83E0084F830
:101E20003F0084F8400084F8410084F8420084F8C0
:101E3000430084F8440084F8450084F83D00002005
:101E400010BD000008B50068B0F1804F08D105480A
:101E5000C16941F00101C161C06900F00100009059
:101E600008BD00000010024090F83D10012901D08B
:101E700001207047022180F83D1000680B4988421C
:101E800008D0B0F1804F05D00949884202D00949F5
:101E9000884204D1816801F00701062903D0016856
:101EA00041F001010160002070470000002C01405A
:101EB000000400400008004070B5044690F83C0063
:101EC000012817D0012584F83C50022084F83D00F9
:101ED0002068826822F0770222F47F4282600868DC
:101EE000502830D00DDC20284DD005DC98B31028C8
:101EF0003BD148E0022070BD302844D0402834D186
:101F000039E0602828D0702806D0B0F5805F2CD04A
:101F1000B0F5005F29D10AE0CB68D1E90121206842
:101F200000F03EF92068816841F0770109E0CB6854
:101F3000D1E90121206800F033F92068816841F47B
:101F40008041816011E0CA684968206800F03AF970
:101F50005021206807E016E0CA684968206800F050
:101F600042F96021206800F025F984F83D500020F6
:101F700084F83C0070BDCA684968206800F022F906
:101F800040212068EFE7226801461046EBE7FEE7B4
:101F90002DE9F04F85B000242E480094019402945E
:101FA0000394816941F010018161816901F01001A0
:101FB0000491816941F020018161816901F0200172
:101FC0000491816941F004018161816901F004019A
:101FD0000491816941F0080181618069DFF878909E
:101FE00000F008004FF400550490002229464846AE
:101FF000FFF7B5FADFF864A040F2F6370022394661
:102000005046FFF7ACFADFF858B04FF48048002292
:1020100041465846FFF7A3FA00950226012503968C
:10202000CDE9015469464846FFF7A4F900970396A5
:10203000CDE9015469465046FFF79CF9CDF8008080
:102040000396CDE9015469465846FFF793F905B068
:10205000BDE8F08F00100240001001400008014070
:10206000000C014010B586B000241648009401947D
:102070000294039404944FF0804105940160472139
:10208000C0E901144FF6FE71C0E903148461FFF743
:10209000ABFE08B172B6FEE74FF48050009069467F
:1020A0000848FFF709FF08B172B6FEE7049404A9D7
:1020B00004480594FFF764FE002801D072B6FEE7DD
:1020C00006B010BD78000020FEE7FEE770477047BD
:1020D000FFF74CBB30B58FB028216846FEF7C8F833
:1020E00014210AA8FEF7C4F801210804CDE9001064
:1020F0000024029402250491CDE907504FF4E0102A
:1021000009906846FFF798FC08B172B6FEE70F2009
:10211000CDE90A054FF48060CDE90C4002210AA800
:102120000E94FFF7ADFB002801D072B6FEE70FB0AA
:1021300030BD7047F0B50268164B174C174D4FF085
:102140008047984205D0B84203D0A04201D0A842AF
:1021500003D122F070064A683243984205D0B84253
:1021600003D0A04201D0A84203D122F44074CA682F
:1021700022434C6922F08002224302608A68C262D4
:102180000A688262984201D10969016301214161B3
:10219000F0BD0000002C0140000400400008004099
:1021A00010B5846842EA032224F47F440A432243A0
:1021B000826010BD826822F070020A4342F007017B
:1021C0008160704710B5036A046A24F00104046258
:1021D000846924F0F00444EA021423F00A020A435A
:1021E0008461026210BD10B5036A23F0100303621C
:1021F0008369046A23F4704343EA023224F0A003A3
:1022000043EA01118261016210BDFEE7490050EA14
:10221000C12018BF04204A0D18BF40F0010040F251
:10222000FF72B2EB515F08BF40F00200012808BF07
:10223000052070470907090E002804DB00F1E020A3
:1022400080F80014704700F00F0000F1E02080F8E3
:10225000141D70472DE9F04F364A0346106840F0D0
:102260000400106033494FF002080831C1F80080C3
:1022700010240C6020250D6040260E6080270F6022
:1022800000F0D0F8106840F0020010602A4AD8062A
:1022900001D5146002E04FF48010106098064FF4EE
:1022A000001901D5156001E0C2F8009058064FF4FE
:1022B000800A01D5166001E0C2F800A018064FF4AC
:1022C000000B01D5176001E0C2F800B000F0AAF8D9
:1022D000C1F800800C600D600E600F6000F0A2F885
:1022E0001448D0F800C04CF0020CC0F800C0D80769
:1022F00001D0146002E04FF480101060980701D5FF
:10230000156001E0C2F80090580701D5166001E0A1
:10231000C2F800A0180701D5176001E0C2F800B0AC
:1023200000F080F8C1F800800C600D600E600F6056
:10233000BDE8F08F0C080140100801402DE9F04F76
:1023400037490346042008604FF00209C1F80090A5
:1023500010240C6020250D6040260E6080270F6041
:1023600000F060F8DFF8B880A8F10808D8F800207D
:1023700042F00202C8F80020D8064FF4801A08F193
:10238000040201D5146001E0C2F800A098064FF4E1
:10239000001B01D5156001E0C2F800B0580601D558
:1023A000166002E04FF480001060180601D5176037
:1023B00002E04FF40000106000F034F8C1F8009023
:1023C0000C600D600E600F6000F02CF8D8F800C0B3
:1023D0004CF0020CC8F800C0D80701D0146001E02E
:1023E000C2F800A0980701D5156001E0C2F800B05E
:1023F000580701D5166002E04FF4800010601807FE
:1024000001D5176002E04FF40000106000F00AF8F8
:10241000C1F800900C600D600E600F60BDE8F08F99
:10242000140801404FF47A70401EFDD17047012816
:1024300005D0022805D1BF31C8B2FFF77FBF7F3179
:10244000FAE7704770B5064614460D46FA20FEF7C7
:102450007FFF0220FFF772FF3220FEF779FF2E4345
:10246000264346F02000FFF769FF3220FEF770FF99
:102470000620FFF763FF3220FEF76AFF0E20FFF70A
:102480005DFF3220FEF764FF0C20FFF757FF32207C
:10249000FEF75EFF0120FFF751FFBDE870406420AA
:1024A000FEF756BF10B5044606E000BFFFF7BAFFBF
:1024B00014F8010BFFF7CEFE20780028F6D1BDE816
:1024C0001040FFF7AFBF10B51446FFF7B0FF20462E
:1024D000BDE81040FFF7E6BF0EB5FFF74FF9FFF775
:1024E000F9FDFFF755FD21481F494FF48044016075
:1024F0001F49416000218160C0E90314416181618D
:10250000C1610162FFF736F808B172B6FEE7FFF766
:10251000A9FD164A174B5432012102F148000094DC
:10252000FEF749FE002108220846FFF78BFF012134
:1025300011A20846FFF7C7FF40F6B830FEF708FFC4
:102540000A4D4FF4FA76143D05F180040295D4E962
:102550001001CDE9000104F130000FC8FEF7DAFEEA
:102560003046FEF7F5FEF1E700540040240000205D
:10257000A0860100000C01404261745F6461750037
:1025800010B500290AD00878002807D005487844FB
:10259000FEF7F4F9002801D0002010BD024878446D
:1025A00010BD000006020000FE0100000808A0F5B2
:1025B00000114FEA3101704743004FEAD30C4FEA54
:1025C0003C0C43401FBF40070CF1605113F0FE4F1D
:1025D00070471CF0006F03D100200CF000417047E1
:1025E0000CF0004343EA507010B540EACC0000F014
:1025F00022F800BF000000924FEA0001FFF7D6BFAB
:102600004FF000414FF00000A1F50021704700009D
:10261000B0FA80F310FA03F2C3F19D030AD0D90592
:1026200001EB1220530638BF704700F1010008BFCC
:1026300020F0010070470EF1020E2EF0030E5EF83E
:10264000044B244204D44FEA4102B2F17F4F11D827
:102650004FEA4003B3F17F4F0CD80ED14FEAD07C44
:10266000B2F17F4F0CEB4C0C0CF1020C08BF4CEBA1
:10267000D17C04E04FF0080C01E04FEAD17C0CEB78
:102680004C0324FA03F404F00704B4F1040C06D25A
:102690000EEB840CBDE810404CF0010C6047DFE805
:1026A0000CF0070802024FF00040A0F5800010BDBA
:1026B0000846420018BFD2F1807288BF00F0004087
:1026C00010BDFDF7D8BE00000000000000000102B0
:1026D00003040607080900000000010203040000CB
:1026E00002400000000000A00000000005400000C3
:1026F000000000C8000000000C4000000000409CEA
:1027000000000000194000000020BCBE00000000D6
:1027100034400000BFC91B8E00000004B54000001B
:10272000504BCFD06607E2CF010000006C410000A3
:102730003E8251AADFEEA73401000000D94200001A
:10274000DCB5A0E23A301F97FFFFFFFFB445000061
:10275000FD25A0C8E9A3C14FFFFFFFFFFF3F000019
:102760000000008000000000FF3F0000000000802B
:1027700000000000B027000800000020100000004A
:1027800028010008C02700081000002028070000CA
:10279000440100081C00000043000000F8FFFFFF98
:1027A0000C0000000E0000000F0000002E000000D2
:1027B0000100000010000000000000000024F400F0
:04000005080000ED02
:00000001FF
